{
  "contractName": "Shares",
  "abi": [
    {
      "constant": false,
      "inputs": [
        {
          "name": "share",
          "type": "uint256"
        }
      ],
      "name": "updateShares",
      "outputs": [],
      "payable": false,
      "stateMutability": "nonpayable",
      "type": "function",
      "signature": "0xb6608467"
    },
    {
      "constant": true,
      "inputs": [
        {
          "name": "addr",
          "type": "address"
        }
      ],
      "name": "getShares",
      "outputs": [
        {
          "name": "",
          "type": "uint256"
        }
      ],
      "payable": false,
      "stateMutability": "view",
      "type": "function",
      "signature": "0xf04da65b"
    }
  ],
  "bytecode": "0x608060405234801561001057600080fd5b506101b5806100206000396000f3fe60806040526004361061004c576000357c0100000000000000000000000000000000000000000000000000000000900463ffffffff168063b660846714610051578063f04da65b1461008c575b600080fd5b34801561005d57600080fd5b5061008a6004803603602081101561007457600080fd5b81019080803590602001909291905050506100f1565b005b34801561009857600080fd5b506100db600480360360208110156100af57600080fd5b81019080803573ffffffffffffffffffffffffffffffffffffffff169060200190929190505050610141565b6040518082815260200191505060405180910390f35b806100fb33610141565b016000803373ffffffffffffffffffffffffffffffffffffffff1673ffffffffffffffffffffffffffffffffffffffff1681526020019081526020016000208190555050565b60008060008373ffffffffffffffffffffffffffffffffffffffff1673ffffffffffffffffffffffffffffffffffffffff16815260200190815260200160002054905091905056fea165627a7a72305820252138cc967f4a8733d672c6a601d2bd05088184c6aa8c461b8212cd6079214b0029",
  "source": "pragma solidity >=0.4.21 <0.6.0;\ncontract Shares {\n  mapping (address => uint) shares;\n \n  function updateShares(uint share) public {\n\n\n    shares[msg.sender] = getShares(msg.sender) + share;\n  }\n \n  function getShares(address addr) public view returns(uint) {\n    return shares[addr];\n  }\n}",
  "sourcePath": "/home/idukkigold/shares/contracts/shares.sol",
  "compiler": {
    "name": "solc",
    "version": "0.5.0+commit.1d4f565a.Emscripten.clang"
  },
  "schemaVersion": "3.0.2",
  "updatedAt": "2019-03-19T04:57:23.213Z",
  "devdoc": {
    "methods": {}
  },
  "userdoc": {
    "methods": {}
  }
}